:100000000C9464000C948C000C948C000C948C0068
:100010000C948C000C948C000C948C000C948C0030
:100020000C948C000C948C000C948C000C948C0020
:100030000C948C000C948C000C948C000C948C0010
:100040000C94D7070C948C000C9428060C945A0638
:100050000C948C000C948C000C948C000C948C00F0
:100060000C9496020C948C00000000080002010021
:100070000003040700000000000000000102040863
:100080001020408001020408102001020408102002
:10009000040404040404040402020202020203032E
:1000A00003030303000000002300260029000000D2
:1000B0000000250028002B0000000000240027007D
:1000C0002A001F013D028A0611241FBECFEFD8E08F
:1000D000DEBFCDBF11E0A0E0B1E0EAE3F2E102C093
:1000E00005900D92A233B107D9F722E0A2E3B1E067
:1000F00001C01D92A03BB207E1F710E0C8ECD0E0D0
:1001000004C02297FE010E941709C23CD107C9F71B
:100110000E94CE060C941B090C94000026E040E8D7
:1001200055E260E070E08AE092E00E94C60581E05E
:100130008093460160E082E00E944B0460E083E02F
:100140000E944B0460E086E00E944B0461E087E07F
:100150000E944B0461E088E00E944B0469E070E07B
:1001600087E491E00E94360263E271E087E491E067
:100170000C943802CF93DF9382E00E94BA04EC0122
:1001800083E00E94BA04019711F4219781F182E083
:100190000E94BA04EC0183E00E94BA0421E00197B6
:1001A00009F020E081E0CD2B09F080E0C22FC823C8
:1001B00086E00E94BA04CC2311F00197C1F082E0DE
:1001C0000E94BA04EC0183E00E94BA0421E0892B6A
:1001D00009F020E081E0219709F080E0C22FC823D8
:1001E00086E00E94BA04CC2399F0892B89F480918F
:1001F000420190914301A0914401B0914501809347
:100200003E0190933F01A0934001B093410108C08B
:1002100010923E0110923F01109240011092410154
:1002200060913E0170913F018091400190914101A8
:100230000E945C0889E0DF91CF910C94C30382E3B4
:1002400091E00C94090282E391E00E945B01BC0101
:10025000882777FD8095982F0E948F086093420130
:1002600070934301809344019093450186E00E947E
:10027000BA04892B31F460E087E00E94840461E0D5
:1002800005C061E087E00E94840460E088E00E948D
:10029000840486E00E94BA044AE050E0BC018AE08F
:1002A00092E00C94BF0780917A0190E020917B014D
:1002B000821B9109089520917B0180917A01281772
:1002C00050F4E22FF0E0E458FE4F808190E02F5F81
:1002D00020937B0108958FEF9FEF0895E0917B01BC
:1002E00080917A01E81730F4F0E0E458FE4F808105
:1002F00090E008958FEF9FEF08950895E0915301E6
:10030000F09154013097E1F030917B0120917A0116
:100310003217B0F040E0242F30E02617370754F4AE
:10032000DC01A20FB31F5C91D901A458BE4F5C93AE
:100330004F5FF1CF10927B0160937A01CB0109945A
:100340000895E0915501F0915601309729F01092EF
:1003500059011092580109940895CF92DF92EF92BB
:10036000FF920F931F93CF93DF937C01CB018A0100
:1003700020915701222389F0EB016B01C40ED51E99
:10038000CC15DD0569F06991D701ED91FC910190E3
:10039000F081E02DC7010995F3CF642F0E9463021D
:1003A000C801DF91CF911F910F91FF90EF90DF90E7
:1003B000CF900895CF93DF931F92CDB7DEB76983B7
:1003C000209157012223D1F020915801203240F092
:1003D00021E030E0FC013383228380E090E015C00F
:1003E00080915901E82FF0E0E65AFE4F9981908301
:1003F0008F5F809359018093580105C061E0CE0161
:1004000001960E94630281E090E00F90DF91CF910E
:100410000895FC011382128248EE53E060E070E020
:10042000448355836683778384E091E0918380835E
:10043000089510927B0110927A0110925901109246
:1004400058010C944102CF93DF93EC01862F0E9458
:100450005F0281EA91E00E9481028EE791E00E94B2
:100460007C02CE01DF91CF910C9419020C942302EF
:100470007093540160935301089587E491E00C94C4
:1004800009021092090281E080930702109206028D
:1004900061E082E10E94840461E083E10E948404BF
:1004A000E9EBF0E080818E7F808380818D7F808387
:1004B00088E48093B80085E48093BC000895880F99
:1004C0008093BA000895613298F420910902243093
:1004D00089F46093BE01FC0180EC91E0DC012A2FDD
:1004E000281B261718F421912D93F9CF80E0089549
:1004F00081E0089582E008959093030280930202C0
:1005000008959093050280930402089585ED8093E9
:10051000BC008091BC0084FDFCCF109209020895BC
:1005200085EC8093BC001092090208951F920F92EF
:100530000FB60F9211242F933F934F935F936F93B6
:100540007F938F939F93AF93BF93EF93FF9380918C
:10055000B900887F803609F49EC078F5883209F4A6
:100560005DC090F4803109F456C038F4882309F452
:10057000F5C0883009F44FC0F5C0883109F44EC089
:10058000803209F45FC0EEC0803409F46AC058F4C8
:10059000803309F457C0883309F0E4C080939C018C
:1005A0000E949002DFC0803509F44FC0883509F4FD
:1005B0005DC0883409F0D6C0D3C0883909F4C4C0FE
:1005C000A8F4883709F467C038F4883609F463C0A2
:1005D000803709F460C0C6C0883809F4B5C08039D6
:1005E00009F45FC0803809F0BDC05BC0803B09F4EE
:1005F00083C038F4803A09F466C0883A09F47CC0B4
:10060000B1C0803C09F4A4C0883C09F4A1C0883B77
:1006100009F487C0A7C08091080210C09091E10141
:100620008091E001981770F5E091E10181E08E0F73
:100630008093E101F0E0EE51FE4F80818093BB009A
:1006400085EC83C080939C018BC0E091E10181E047
:100650008E0F8093E1018091BB00F0E0EE51FE4FE0
:1006600080839091E1018091E0016BC0E091E10114
:1006700081E08E0F8093E1018091BB00F0E0EE51AC
:10068000FE4F80838091070281116AC081E08093D0
:10069000060284EA5EC083E08093090210929D0105
:1006A000CFCF80919D01803208F04EC0E0919D0136
:1006B00081E08E0F80939D018091BB00F0E0E256B7
:1006C000FE4F8083BDCF0E94900280919D018032B9
:1006D00030F4E0919D01F0E0E256FE4F108260910F
:1006E0009D0170E0E0910202F09103028EE991E039
:1006F000099510929D0136C084E080930902109202
:10070000BF011092BE01E0910402F091050209952B
:100710008091BE01811105C081E08093BE011092DD
:10072000C001E091BF0181E08E0F8093BF01F0E036
:10073000E054FE4F80818093BB009091BF01809177
:10074000BE01981708F47CCF85E88093BC000AC0EE
:1007500085EC8093BC001092090204C010929C01A9
:100760000E948602FF91EF91BF91AF919F918F916F
:100770007F916F915F914F913F912F910F900FBE9D
:100780000F901F9018951F93CF93DF93182FEB01B5
:1007900061E00E944B04209711F460E004C0CF3F59
:1007A000D10539F461E0812FDF91CF911F910C9435
:1007B0008404E12FF0E0E859FF4FE491E330F9F0D1
:1007C00048F4E130B9F0E230A1F584B5806284BD2F
:1007D000C8BD34C0E730E9F0E83019F1E43049F53C
:1007E00080918000806280938000D0938B00C093C2
:1007F0008A0024C084B5806884BDC7BD1FC08091B5
:100800008000806880938000D0938900C093880026
:1008100015C08091B00080688093B000C093B30091
:100820000DC08091B00080628093B000C093B4008E
:1008300005C0C038D1050CF0B5CFAFCFDF91CF9157
:100840001F910895833081F028F4813099F082302F
:10085000A1F008958730A9F08830B9F08430D1F440
:10086000809180008F7D03C0809180008F7780937E
:100870008000089584B58F7702C084B58F7D84BDD4
:1008800008958091B0008F7703C08091B0008F7D74
:100890008093B0000895CF93DF9390E0FC01E4587B
:1008A000FF4F2491FC01E057FF4F8491882349F1C9
:1008B00090E0880F991FFC01E854FF4FA591B49177
:1008C00082559F4FFC01C591D4919FB7611108C01B
:1008D000F8948C91209582238C93888182230AC07E
:1008E000623051F4F8948C91322F309583238C939D
:1008F0008881822B888304C0F8948C91822B8C93FE
:100900009FBFDF91CF9108950F931F93CF93DF93F4
:100910001F92CDB7DEB7282F30E0F901E859FF4F1D
:100920008491F901E458FF4F1491F901E057FF4F0A
:1009300004910023C9F0882321F069830E942204D6
:100940006981E02FF0E0EE0FFF1FE255FF4FA59108
:10095000B4919FB7F8948C91611103C010958123D5
:1009600001C0812B8C939FBF0F90DF91CF911F917E
:100970000F910895CF93DF93282F30E0F901E859C4
:10098000FF4F8491F901E458FF4FD491F901E057EA
:10099000FF4FC491CC2391F081110E942204EC2FCF
:1009A000F0E0EE0FFF1FEC55FF4FA591B4912C9195
:1009B0002D2381E090E021F480E002C080E090E00F
:1009C000DF91CF910895FC01818D228D90E0805CB4
:1009D0009F4F821B91098F7399270895FC01918D78
:1009E000828D981731F0828DE80FF11D858D90E092
:1009F00008958FEF9FEF0895FC01918D828D9817D8
:100A000061F0828DDF01A80FB11D5D968C91928DF2
:100A10009F5F9F73928F90E008958FEF9FEF0895EF
:100A200080E896E0892B49F080E090E0892B29F05E
:100A30000E94800681110C9400000895FC01848DB1
:100A4000DF01A80FB11DA35ABF4F2C91848D90E0F8
:100A500001968F739927848FA689B7892C93A089D3
:100A6000B1898C9180648C93938D848D981306C08A
:100A70000288F389E02D80818F7D80830895CF9354
:100A8000DF93EC01888D8823C9F0EA89FB89808196
:100A900085FD05C0A889B9898C9186FD0FC00FB668
:100AA00007FCF5CF808185FFF2CFA889B9898C91A9
:100AB00085FFEDCFCE010E941E05E7CFDF91CF91DC
:100AC0000895CF92DF92FF920F931F93CF93DF93FE
:100AD0001F92CDB7DEB76C0181E0D60158968C939A
:100AE00058975B969C915B975C968C915C9798135A
:100AF00007C05096ED91FC915197808185FD2EC0E5
:100B0000F601038D10E00F5F1F4F0F731127F02EBA
:100B1000F601848DF81211C00FB607FCF9CFD6018B
:100B20005096ED91FC915197808185FFF1CFC601E0
:100B300069830E941E056981EBCF838DE80FF11D4B
:100B4000E35AFF4F6083D6015B960C935B975296F6
:100B5000ED91FC915397808180620CC0D60156962E
:100B6000ED91FC91579760835096ED91FC915197D0
:100B700080818064808381E090E00F90DF91CF914D
:100B80001F910F91FF90DF90CF900895BF92CF9269
:100B9000DF92EF92FF92CF93DF93EC016A017B012A
:100BA000B22EE889F98982E08083411581EE5807E9
:100BB00061057105A1F060E079E08DE390E0A701A7
:100BC00096010E94F30821503109410951095695B7
:100BD000479537952795211580E1380798F0E889E2
:100BE000F989108260E874E88EE190E0A70196012F
:100BF0000E94F30821503109410951095695479542
:100C000037952795EC85FD853083EE85FF8520831C
:100C1000188EEC89FD89B082EA89FB898081806128
:100C20008083EA89FB89808188608083EA89FB89E7
:100C3000808180688083EA89FB8980818F7D8083C1
:100C4000DF91CF91FF90EF90DF90CF90BF9008950C
:100C50001F920F920FB60F9211242F938F939F9391
:100C6000EF93FF93E0911A02F0911B028081E091D3
:100C70002002F091210282FD12C090818091230216
:100C80008F5F8F7320912402821751F0E09123022D
:100C9000F0E0E65FFD4F958F8093230201C08081D5
:100CA000FF91EF919F918F912F910F900FBE0F9019
:100CB0001F9018951F920F920FB60F9211242F9329
:100CC0003F934F935F936F937F938F939F93AF93D4
:100CD000BF93EF93FF938AE092E00E941E05FF917D
:100CE000EF91BF91AF919F918F917F916F915F91A4
:100CF0004F913F912F910F900FBE0F901F9018951D
:100D00008AE092E00E94E30421E0892B09F420E0CC
:100D1000822F089510920D0210920C0288EE93E03B
:100D2000A0E0B0E080930E0290930F02A093100217
:100D3000B093110284E191E090930B0280930A0238
:100D400085EC90E0909317028093160284EC90E07B
:100D5000909319028093180280EC90E090931B020C
:100D600080931A0281EC90E090931D0280931C0204
:100D700082EC90E090931F0280931E0286EC90E03C
:100D80009093210280932002109223021092240259
:100D90001092250210922602089508950E942108BB
:100DA0000E94CD060E948E00C0E1D5E00E94BA00EC
:100DB0002097E1F30E941005F9CFCF92DF92EF92D6
:100DC000FF920F931F93CF93DF937C016A01EB0196
:100DD00000E010E00C151D0571F06991D701ED914F
:100DE000FC910190F081E02DC7010995892B19F044
:100DF0000F5F1F4FEFCFC801DF91CF911F910F9170
:100E0000FF90EF90DF90CF9008956115710581F00C
:100E1000DB010D900020E9F7AD0141505109461B5F
:100E2000570BDC01ED91FC910280F381E02D0994D8
:100E300080E090E00895DC01ED91FC910190F0815B
:100E4000E02D099460E271E00C9405078F929F9267
:100E5000AF92BF92DF92EF92FF920F931F93CF93C7
:100E6000DF93CDB7DEB7A1970FB6F894DEBF0FBE04
:100E7000CDBF7C01F42FD52ECB0119A2223008F46E
:100E80002AE08E010F5D1F4F822E912CA12CB12CD8
:100E90006F2F7D2DA50194010E94F308F22FD32E10
:100EA000CA01015011096A3014F4E0E301C0E7E31C
:100EB000E60FD801EC93232B242B252B49F7B801FF
:100EC000C7010E940507A1960FB6F894DEBF0FBEBA
:100ED000CDBFDF91CF911F910F91FF90EF90DF90E9
:100EE000BF90AF909F908F900895CF92DF92EF9236
:100EF000FF920F931F93CF93DF93EC016A017B0165
:100F00002115310579F4E881F9810190F081E02D16
:100F1000642FDF91CF911F910F91FF90EF90DF90A1
:100F2000CF9009942A303105E9F477FF1AC06DE2B9
:100F30000E941B078C0144275527BA014C195D09F3
:100F40006E097F092AE0CE010E942607800F911FBB
:100F5000DF91CF911F910F91FF90EF90DF90CF9095
:100F600008952AE0B701A601CE01DF91CF911F912C
:100F70000F91FF90EF90DF90CF900C9426070F9386
:100F80001F93CF93DF93EC019A01AB01662757FDC6
:100F90006095762F0E9475078C01CE010E94220772
:100FA000800F911FDF91CF911F910F9108951F9294
:100FB0000F920FB60F9211242F933F938F939F930D
:100FC000AF93BF938091A8029091A902A091AA0229
:100FD000B091AB023091A70223E0230F2D3720F40C
:100FE0000196A11DB11D05C026E8230F0296A11D83
:100FF000B11D2093A7028093A8029093A902A09309
:10100000AA02B093AB028091AC029091AD02A09184
:10101000AE02B091AF020196A11DB11D8093AC024A
:101020009093AD02A093AE02B093AF02BF91AF9187
:101030009F918F913F912F910F900FBE0F901F9016
:101040001895789484B5826084BD84B5816084BD30
:1010500085B5826085BD85B5816085BDEEE6F0E031
:10106000808181608083E1E8F0E01082808182608D
:101070008083808181608083E0E8F0E0808181600E
:101080008083E1EBF0E0808184608083E0EBF0E03E
:10109000808181608083EAE7F0E0808184608083E2
:1010A000808182608083808181608083808180688C
:1010B00080831092C100089504D06894B1118DC04E
:1010C000089570D088F09F5790F0B92F9927B751A5
:1010D000A0F0D1F0660F771F881F991F1AF0BA95FC
:1010E000C9F712C0B13081F077D0B1E0089574C073
:1010F000672F782F8827B85F39F0B93FCCF38695F2
:1011000077956795B395D9F73EF49095809570954E
:1011100061957F4F8F4F9F4F0895E89409C097FBCB
:101120003EF490958095709561957F4F8F4F9F4FBE
:101130009923A9F0F92F96E9BB279395F695879502
:1011400077956795B795F111F8CFFAF4BB0F11F4C5
:1011500060FF1BC06F5F7F4F8F4F9F4F16C088236C
:1011600011F096E911C0772321F09EE8872F762FA2
:1011700005C0662371F096E8862F70E060E02AF0E3
:101180009A95660F771F881FDAF7880F96958795CF
:1011900097F9089557FD9058440F551F59F05F3F38
:1011A00071F04795880F97FB991F61F09F3F79F089
:1011B00087950895121613061406551FF2CF46950B
:1011C000F1DF08C0161617061806991FF1CF86958D
:1011D0007105610508940895E894BB276627772771
:1011E000CB0197F90895A1E21A2EAA1BBB1BFD01A2
:1011F0000DC0AA1FBB1FEE1FFF1FA217B307E407F6
:10120000F50720F0A21BB30BE40BF50B661F771F4D
:10121000881F991F1A9469F760957095809590952D
:101220009B01AC01BD01CF010895EE0FFF1F05909A
:0A123000F491E02D0994F894FFCF2B
:10123A0000000000DA01AD0153015B016E017D017E
:10124A00000000006105DD06E304FC04EE043F052E
:10125A000D0A006E616E00696E66006F7666002E7A
:02126A00000082
:00000001FF
