:100000000C9464000C948C000C948C000C948C0068
:100010000C948C000C948C000C948C000C948C0030
:100020000C948C000C948C000C948C000C948C0020
:100030000C948C000C948C000C948C000C948C0010
:100040000C94FB060C948C000C941E060C94500629
:100050000C948C000C948C000C948C000C948C00F0
:100060000C948C020C948C0000000008000201002B
:100070000003040700000000000000000102040863
:100080001020408001020408102001020408102002
:10009000040404040404040402020202020203032E
:1000A00003030303000000002300260029000000D2
:1000B0000000250028002B0000000000240027007D
:1000C0002A001F013302800611241FBECFEFD8E0A3
:1000D000DEBFCDBF11E0A0E0B1E0E2E8F0E102C098
:1000E00005900D92A032B107D9F722E0A0E2B1E06D
:1000F00001C01D92AE39B207E1F710E0C8ECD0E0C4
:1001000004C02297FE010E943B08C23CD107C9F7F8
:100110000E94C4060C943F080C94000026E040E8BE
:1001200055E260E070E088EF91E00E94BC0581E05C
:100130008093340160E082E00E94410460E083E04B
:100140000E94410460E086E00E94410461E087E093
:100150000E94410461E088E00E94410469E070E08F
:1001600085E391E00E942C0263E271E085E391E077
:100170000C942E02CF93DF9382E00E94B004EC0136
:1001800083E00E94B004019711F4219781F182E08D
:100190000E94B004EC0183E00E94B00421E00197CA
:1001A00009F020E081E0CD2B09F080E0C22FC823C8
:1001B00086E00E94B004CC2311F00197C1F082E0E8
:1001C0000E94B004EC0183E00E94B00421E0892B7E
:1001D00009F020E081E0219709F080E0C22FC823D8
:1001E00086E00E94B004CC2399F0892B89F4809199
:1001F000300190913101A0913201B091330180938F
:100200002C0190932D01A0932E01B0932F0108C0D3
:1002100010922C0110922D0110922E0110922F019C
:1002200060912C0170912D0180912E0190912F01F0
:100230000E94800789E0DF91CF910C94B90380E29E
:1002400091E00C94FF0180E291E00E945101BC0119
:10025000882777FD8095982F0E94B307609330011F
:1002600070933101809332019093330186E00E94B4
:10027000B004892B31F460E087E00E947A0461E0E9
:1002800005C061E087E00E947A0460E088E00C9499
:100290007A048091680190E020916901821B9109A4
:1002A00008952091690180916801281750F4E22F88
:1002B000F0E0E659FE4F808190E02F5F20936901C6
:1002C00008958FEF9FEF0895E09169018091680193
:1002D000E81730F4F0E0E659FE4F808190E0089591
:1002E0008FEF9FEF08950895E0914101F091420151
:1002F0003097E1F030916901209168013217B0F038
:1003000040E0242F30E02617370754F4DC01A20F19
:10031000B31F5C91D901A659BE4F5C934F5FF1CFDB
:100320001092690160936801CB0109940895E091EE
:100330004301F0914401309729F010924701109247
:10034000460109940895CF92DF92EF92FF920F93A6
:100350001F93CF93DF937C01CB018A01209145014C
:10036000222389F0EB016B01C40ED51ECC15DD05EF
:1003700069F06991D701ED91FC910190F081E02D38
:10038000C7010995F3CF642F0E945902C801DF917C
:10039000CF911F910F91FF90EF90DF90CF90089534
:1003A000CF93DF931F92CDB7DEB7698320914501CC
:1003B0002223D1F020914601203240F021E030E0AC
:1003C000FC013383228380E090E015C080914701D7
:1003D000E82FF0E0E85BFE4F998190838F5F809378
:1003E00047018093460105C061E0CE0101960E945D
:1003F000590281E090E00F90DF91CF910895FC01C8
:100400001382128248EE53E060E070E0448355832B
:100410006683778384E091E09183808308951092CE
:1004200069011092680110924701109246010C94E4
:100430003702CF93DF93EC01862F0E94550287E9A4
:1004400091E00E94770284E791E00E947202CE015F
:10045000DF91CF910C940F020C941902709342011A
:1004600060934101089585E391E00C94FF0110929F
:10047000F70181E08093F5011092F40161E082E1DF
:100480000E947A0461E083E10E947A04E9EBF0E0E3
:1004900080818E7F808380818D7F808388E48093BC
:1004A000B80085E48093BC000895880F8093BA005B
:1004B0000895613298F42091F701243089F4609313
:1004C000AC01FC018EEA91E0DC012A2F281B2617E3
:1004D00018F421912D93F9CF80E0089581E00895DB
:1004E00082E008959093F1018093F0010895909334
:1004F000F3018093F201089585ED8093BC00809113
:10050000BC0084FDFCCF1092F701089585EC809328
:10051000BC001092F70108951F920F920FB60F9230
:1005200011242F933F934F935F936F937F938F93F8
:100530009F93AF93BF93EF93FF938091B900887F10
:10054000803609F49EC078F5883209F45DC090F4D5
:10055000803109F456C038F4882309F4F5C0883096
:1005600009F44FC0F5C0883109F44EC0803209F457
:100570005FC0EEC0803409F46AC058F4803309F4D7
:1005800057C0883309F0E4C080938A010E94860234
:10059000DFC0803509F44FC0883509F45DC0883468
:1005A00009F0D6C0D3C0883909F4C4C0A8F488378C
:1005B00009F467C038F4883609F463C0803709F459
:1005C00060C0C6C0883809F4B5C0803909F45FC07E
:1005D000803809F0BDC05BC0803B09F483C038F4AB
:1005E000803A09F466C0883A09F47CC0B1C0803C06
:1005F00009F4A4C0883C09F4A1C0883B09F487C071
:10060000A7C08091F60110C09091CF018091CE01DA
:10061000981770F5E091CF0181E08E0F8093CF01A4
:10062000F0E0E053FE4F80818093BB0085EC83C0F7
:1006300080938A018BC0E091CF0181E08E0F80937F
:10064000CF018091BB00F0E0E053FE4F808390919A
:10065000CF018091CE016BC0E091CF0181E08E0F80
:100660008093CF018091BB00F0E0E053FE4F808388
:100670008091F50181116AC081E08093F40184EAE0
:100680005EC083E08093F70110928B01CFCF809101
:100690008B01803208F04EC0E0918B0181E08E0F1B
:1006A00080938B018091BB00F0E0E457FE4F808384
:1006B000BDCF0E94860280918B01803230F4E091A0
:1006C0008B01F0E0E457FE4F108260918B0170E0E7
:1006D000E091F001F091F1018CE891E00995109220
:1006E0008B0136C084E08093F7011092AD01109227
:1006F000AC01E091F201F091F30109958091AC0118
:10070000811105C081E08093AC011092AE01E091AF
:10071000AD0181E08E0F8093AD01F0E0E255FE4F18
:1007200080818093BB009091AD018091AC019817BE
:1007300008F47CCF85E88093BC000AC085EC8093E8
:10074000BC001092F70104C010928A010E947C0242
:10075000FF91EF91BF91AF919F918F917F916F9199
:100760005F914F913F912F910F900FBE0F901F906F
:1007700018951F93CF93DF93182FEB0161E00E9430
:100780004104209711F460E004C0CF3FD10539F453
:1007900061E0812FDF91CF911F910C947A04E12FBA
:1007A000F0E0E859FF4FE491E330F9F048F4E1302C
:1007B000B9F0E230A1F584B5806284BDC8BD34C013
:1007C000E730E9F0E83019F1E43049F58091800034
:1007D000806280938000D0938B00C0938A0024C0F5
:1007E00084B5806884BDC7BD1FC0809180008068CB
:1007F00080938000D0938900C093880015C08091B9
:10080000B00080688093B000C093B3000DC08091A9
:10081000B00080628093B000C093B40005C0C038BF
:10082000D1050CF0B5CFAFCFDF91CF911F910895D7
:10083000833081F028F4813099F08230A1F008955E
:100840008730A9F08830B9F08430D1F480918000ED
:100850008F7D03C0809180008F7780938000089502
:1008600084B58F7702C084B58F7D84BD0895809153
:10087000B0008F7703C08091B0008F7D8093B0006F
:100880000895CF93DF9390E0FC01E458FF4F24914B
:10089000FC01E057FF4F8491882349F190E0880FD5
:1008A000991FFC01E854FF4FA591B49182559F4FC9
:1008B000FC01C591D4919FB7611108C0F8948C9147
:1008C000209582238C93888182230AC0623051F460
:1008D000F8948C91322F309583238C938881822BCE
:1008E000888304C0F8948C91822B8C939FBFDF91F6
:1008F000CF9108950F931F93CF93DF931F92CDB79E
:10090000DEB7282F30E0F901E859FF4F8491F90153
:10091000E458FF4F1491F901E057FF4F0491002371
:10092000C9F0882321F069830E9418046981E02FAF
:10093000F0E0EE0FFF1FE255FF4FA591B4919FB776
:10094000F8948C91611103C01095812301C0812B13
:100950008C939FBF0F90DF91CF911F910F910895BE
:10096000CF93DF93282F30E0F901E859FF4F8491AE
:10097000F901E458FF4FD491F901E057FF4FC491BA
:10098000CC2391F081110E941804EC2FF0E0EE0FBF
:10099000FF1FEC55FF4FA591B4912C912D2381E0C1
:1009A00090E021F480E002C080E090E0DF91CF9100
:1009B0000895FC01818D228D90E0805C9F4F821B09
:1009C00091098F7399270895FC01918D828D981755
:1009D00031F0828DE80FF11D858D90E008958FEF45
:1009E0009FEF0895FC01918D828D981761F0828DA3
:1009F000DF01A80FB11D5D968C91928D9F5F9F7353
:100A0000928F90E008958FEF9FEF089586E796E02C
:100A1000892B49F080E090E0892B29F00E9476062E
:100A200081110C9400000895FC01848DDF01A80F52
:100A3000B11DA35ABF4F2C91848D90E001968F7306
:100A40009927848FA689B7892C93A089B1898C9125
:100A500080648C93938D848D981306C00288F389EB
:100A6000E02D80818F7D80830895CF93DF93EC010B
:100A7000888D8823C9F0EA89FB89808185FD05C0BE
:100A8000A889B9898C9186FD0FC00FB607FCF5CFF8
:100A9000808185FFF2CFA889B9898C9185FFEDCF40
:100AA000CE010E941405E7CFDF91CF910895CF9238
:100AB000DF92FF920F931F93CF93DF931F92CDB7D7
:100AC000DEB76C0181E0D60158968C9358975B96FF
:100AD0009C915B975C968C915C97981307C050969D
:100AE000ED91FC915197808185FD2EC0F601038D1B
:100AF00010E00F5F1F4F0F731127F02EF601848D4A
:100B0000F81211C00FB607FCF9CFD6015096ED913F
:100B1000FC915197808185FFF1CFC60169830E94C6
:100B200014056981EBCF838DE80FF11DE35AFF4F68
:100B30006083D6015B960C935B975296ED91FC9186
:100B40005397808180620CC0D6015696ED91FC913E
:100B5000579760835096ED91FC9151978081806406
:100B6000808381E090E00F90DF91CF911F910F91F2
:100B7000FF90DF90CF900895BF92CF92DF92EF92D7
:100B8000FF92CF93DF93EC016A017B01B22EE889DB
:100B9000F98982E08083411581EE5807610571056E
:100BA000A1F060E079E08DE390E0A70196010E945A
:100BB0001708215031094109510956954795379534
:100BC0002795211580E1380798F0E889F989108286
:100BD00060E874E88EE190E0A70196010E94170892
:100BE0002150310941095109569547953795279567
:100BF000EC85FD853083EE85FF852083188EEC899A
:100C0000FD89B082EA89FB89808180618083EA89DD
:100C1000FB89808188608083EA89FB898081806884
:100C20008083EA89FB8980818F7D8083DF91CF91EA
:100C3000FF90EF90DF90CF90BF9008951F920F929A
:100C40000FB60F9211242F938F939F93EF93FF93DF
:100C5000E0910802F09109028081E0910E02F0918A
:100C60000F0282FD12C09081809111028F5F8F73FD
:100C700020911202821751F0E0911102F0E0E85049
:100C8000FE4F958F8093110201C08081FF91EF91FB
:100C90009F918F912F910F900FBE0F901F901895DD
:100CA0001F920F920FB60F9211242F933F934F93E1
:100CB0005F936F937F938F939F93AF93BF93EF93C4
:100CC000FF9388EF91E00E941405FF91EF91BF918F
:100CD000AF919F918F917F916F915F914F913F91D4
:100CE0002F910F900FBE0F901F90189588EF91E0F5
:100CF0000E94D90421E0892B09F420E0822F089575
:100D00001092FB011092FA0188EE93E0A0E0B0E0AF
:100D10008093FC019093FD01A093FE01B093FF012D
:100D200084E191E09093F9018093F80185EC90E0E3
:100D3000909305028093040284EC90E09093070264
:100D40008093060280EC90E0909309028093080261
:100D500081EC90E090930B0280930A0282EC90E089
:100D600090930D0280930C0286EC90E090930F021A
:100D700080930E021092110210921202109213022E
:100D800010921402089508950E9445070E94C30618
:100D90000E948E00C6E0D5E00E94BA002097E1F3E1
:100DA0000E940605F9CFCF92DF92EF92FF920F9348
:100DB0001F93CF93DF937C016A01EB0100E010E009
:100DC0000C151D0571F06991D701ED91FC91019011
:100DD000F081E02DC7010995892B19F00F5F1F4F96
:100DE000EFCFC801DF91CF911F910F91FF90EF904E
:100DF000DF90CF9008951F920F920FB60F9211249B
:100E00002F933F938F939F93AF93BF9380919602BD
:100E100090919702A0919802B09199023091950219
:100E200023E0230F2D3720F40196A11DB11D05C02D
:100E300026E8230F0296A11DB11D209395028093F1
:100E4000960290939702A0939802B0939902809192
:100E50009A0290919B02A0919C02B0919D020196F2
:100E6000A11DB11D80939A0290939B02A0939C02B6
:100E7000B0939D02BF91AF919F918F913F912F9120
:100E80000F900FBE0F901F901895789484B58260D4
:100E900084BD84B5816084BD85B5826085BD85B51E
:100EA000816085BDEEE6F0E0808181608083E1E8CD
:100EB000F0E0108280818260808380818160808305
:100EC000E0E8F0E0808181608083E1EBF0E0808108
:100ED00084608083E0EBF0E0808181608083EAE7DA
:100EE000F0E0808184608083808182608083808163
:100EF000816080838081806880831092C100089522
:100F000004D06894B1118DC0089570D088F09F57B7
:100F100090F0B92F9927B751A0F0D1F0660F771F45
:100F2000881F991F1AF0BA95C9F712C0B13081F025
:100F300077D0B1E0089574C0672F782F8827B85F05
:100F400039F0B93FCCF3869577956795B395D9F786
:100F50003EF490958095709561957F4F8F4F9F4F90
:100F60000895E89409C097FB3EF49095809570959C
:100F700061957F4F8F4F9F4F9923A9F0F92F96E9E5
:100F8000BB279395F695879577956795B795F1115A
:100F9000F8CFFAF4BB0F11F460FF1BC06F5F7F4FF7
:100FA0008F4F9F4F16C0882311F096E911C0772309
:100FB00021F09EE8872F762F05C0662371F096E812
:100FC000862F70E060E02AF09A95660F771F881FE1
:100FD000DAF7880F9695879597F9089557FD9058F9
:100FE000440F551F59F05F3F71F04795880F97FBED
:100FF000991F61F09F3F79F08795089512161306A7
:101000001406551FF2CF4695F1DF08C016161706D5
:101010001806991FF1CF869571056105089408950A
:10102000E894BB2766277727CB0197F90895A1E2BB
:101030001A2EAA1BBB1BFD010DC0AA1FBB1FEE1F52
:10104000FF1FA217B307E407F50720F0A21BB30B9D
:10105000E40BF50B661F771F881F991F1A9469F719
:1010600060957095809590959B01AC01BD01CF0175
:101070000895EE0FFF1F0590F491E02D0994F89468
:02108000FFCFA0
:1010820000000000D001A301490151016401730174
:10109200000000005705D306D904F204E404350524
:00000001FF
