:100000000C9465000C948D000C948D000C948D0064
:100010000C948D000C948D000C948D000C948D002C
:100020000C948D000C948D000C948D000C948D001C
:100030000C948D000C948D000C948D000C948D000C
:100040000C94FC040C948D000C944F080C948108C3
:100050000C948D000C948D000C948D000C948D00EC
:100060000C94D2020C948D000000000800020100E4
:100070000003040700000000000000000102040863
:100080001020408001020408102001020408102002
:10009000040404040404040402020202020203032E
:1000A00003030303000000002300260029000000D2
:1000B0000000250028002B0000000000240027007D
:1000C0002A0065017902DB04B10811241FBECFEFBD
:1000D000D8E0DEBFCDBF11E0A0E0B1E0E6E8FAE194
:1000E00002C005900D92AA3BB107D9F723E0AAEB15
:1000F000B1E001C01D92A038B207E1F710E0CAECF0
:10010000D0E004C02297FE010E943D0DC23CD10701
:10011000C9F70E94F5080C94410D0C94000048EBBF
:100120005BE060E070E082E992E00E94290420E850
:1001300035E240E050E063EE72E082E992E00E9436
:100140003F0461E082E992E00E94FF03882391F07E
:1001500060E071E08091D4029091D5020E94420942
:100160006AE070E080E090E00E94750582E992E02C
:100170000E94280441E060E082E992E00E94BD0410
:1001800026E040E855E260E070E083EE92E00E94F5
:10019000ED0781E08093CE0160E082E00E9472066C
:1001A00060E083E00E94720660E086E00E947206D2
:1001B00061E087E00E94720661E088E00E947206BA
:1001C00069E070E08FEC91E00E94720269E671E0F4
:1001D0008FEC91E00C947402CF93DF9382E00E9445
:1001E000E106EC0183E00E94E106019711F42197FA
:1001F00081F182E00E94E106EC0183E00E94E106C9
:1002000021E0019709F020E081E0CD2B09F080E0AA
:10021000C22FC82386E00E94E106CC2311F001978B
:10022000C1F082E00E94E106EC0183E00E94E10659
:1002300021E0892B09F020E081E0219709F080E09E
:10024000C22FC82386E00E94E106CC2399F0892BB7
:1002500089F48091CA019091CB01A091CC01B09119
:10026000CD018093C6019093C701A093C801B093BC
:10027000C90108C01092C6011092C7011092C801AE
:100280001092C9016091C6017091C7018091C801A7
:100290009091C9010E94CB0B89E00E94EA0562E1BE
:1002A00071E083EE92E00E9442094091C6015091B4
:1002B000C7016091C8017091C90122E030E083EE6E
:1002C00092E0DF91CF910C94E70A8AEB91E00C94D5
:1002D00045028AEB91E00E949701BC01882777FDD7
:1002E0008095982F0E94FE0B6093CA017093CB01FA
:1002F0008093CC019093CD0186E00E94E106892B8A
:1003000031F460E087E00E94AB0661E005C061E087
:1003100087E00E94AB0660E088E00C94AB06809119
:10032000020290E020910302821B9109089520911E
:10033000030280910202281750F4E22FF0E0EC5FF4
:10034000FD4F808190E02F5F2093030208958FEF8F
:100350009FEF0895E091030280910202E81730F4C4
:10036000F0E0EC5FFD4F808190E008958FEF9FEF0C
:1003700008950895E091DB01F091DC013097E1F000
:1003800030910302209102023217B0F040E0242F96
:1003900030E02617370754F4DC01A20FB31F5C913D
:1003A000D901AC5FBD4F5C934F5FF1CF1092030258
:1003B00060930202CB0109940895E091DD01F09170
:1003C000DE01309729F01092E1011092E0010994CA
:1003D0000895CF92DF92EF92FF920F931F93CF93E6
:1003E000DF937C01CB018A012091DF01222389F078
:1003F000EB016B01C40ED51ECC15DD0569F06991CA
:10040000D701ED91FC910190F081E02DC701099594
:10041000F3CF642F0E949F02C801DF91CF911F91FB
:100420000F91FF90EF90DF90CF900895CF93DF93DF
:100430001F92CDB7DEB769832091DF012223D1F06F
:100440002091E001203240F021E030E0FC013383D4
:10045000228380E090E015C08091E101E82FF0E078
:10046000EE51FE4F998190838F5F8093E1018093DD
:10047000E00105C061E0CE0101960E949F0281E08B
:1004800090E00F90DF91CF910895FC0113821282CA
:1004900048EE53E060E070E04483558366837783E1
:1004A00085E291E091838083089510920302109277
:1004B00002021092E1011092E0010C947D02CF93B0
:1004C000DF93EC01862F0E949B028DED91E00E944C
:1004D000BD028AEB91E00E94B802CE01DF91CF917C
:1004E0000C9455020C945F027093DC016093DB0165
:1004F00008958FEC91E00C9445021092910281E0F6
:1005000080938F0210928E0261E082E10E94AB061E
:1005100061E083E10E94AB06E9EBF0E080818E7F31
:10052000808380818D7F808388E48093B80085E418
:100530008093BC000895880F8093BA0008956132BB
:1005400098F420919102243089F460934602FC01D2
:1005500088E492E0DC012A2F281B261718F4219149
:100560002D93F9CF80E0089581E0089582E0089509
:1005700090938B0280938A02089590938D028093CA
:100580008C02089585ED8093BC008091BC0084FDB1
:10059000FCCF10929102089585EC8093BC001092DC
:1005A000910208951F920F920FB60F9211242F936C
:1005B0003F934F935F936F937F938F939F93AF93EB
:1005C000BF93EF93FF938091B900887F803609F441
:1005D0009EC078F5883209F45DC090F4803109F44A
:1005E00056C038F4882309F4F5C0883009F44FC0A8
:1005F000F5C0883109F44EC0803209F45FC0EEC006
:10060000803409F46AC058F4803309F457C0883341
:1006100009F0E4C0809324020E94CC02DFC0803540
:1006200009F44FC0883509F45DC0883409F0D6C09C
:10063000D3C0883909F4C4C0A8F4883709F467C066
:1006400038F4883609F463C0803709F460C0C6C046
:10065000883809F4B5C0803909F45FC0803809F0E2
:10066000BDC05BC0803B09F483C038F4803A09F414
:1006700066C0883A09F47CC0B1C0803C09F4A4C0CB
:10068000883C09F4A1C0883B09F487C0A7C08091C9
:10069000900210C09091690280916802981770F5DD
:1006A000E091690281E08E0F80936902F0E0E659E3
:1006B000FD4F80818093BB0085EC83C08093240232
:1006C0008BC0E091690281E08E0F80936902809176
:1006D000BB00F0E0E659FD4F808390916902809164
:1006E00068026BC0E091690281E08E0F809369021D
:1006F0008091BB00F0E0E659FD4F808380918F022E
:1007000081116AC081E080938E0284EA5EC083E03A
:100710008093910210922502CFCF809125028032E2
:1007200008F04EC0E091250281E08E0F80932502F3
:100730008091BB00F0E0EA5DFD4F8083BDCF0E9459
:10074000CC0280912502803230F4E0912502F0E065
:10075000EA5DFD4F10826091250270E0E0918A020F
:10076000F0918B0286E292E009951092250236C044
:1007700084E0809391021092470210924602E09129
:100780008C02F0918D02099580914602811105C07D
:1007900081E08093460210924802E091470281E096
:1007A0008E0F80934702F0E0E85BFD4F80818093DD
:1007B000BB009091470280914602981708F47CCFC5
:1007C00085E88093BC000AC085EC8093BC00109241
:1007D000910204C0109224020E94C202FF91EF9184
:1007E000BF91AF919F918F917F916F915F914F9149
:1007F0003F912F910F900FBE0F901F9018950F9360
:100800001F93CF93DF93EC01611116C00E94460540
:100810000A811B812C813D81601B710B820B930B24
:10082000623371058105910538F463E070E080E082
:1008300090E00E947505EACF0E9446056A837B839B
:100840008C839D8381E0DF91CF911F910F9108955B
:100850000895FC01EC5BFF4F10821182128213821B
:10086000FC01128213821482158241155105610523
:10087000710521F0CB01BA010C9475050895FB01B7
:10088000BA01A9018E5B9F4FDC01ED93FC9326E03A
:10089000CF010C94ED078E5B9F4FDC018D919C91F5
:1008A000DC01ED91FC910680F781E02D099508951A
:1008B0008E5B9F4FDC018D919C91DC01ED91FC9151
:1008C0000480F581E02D099508951F93CF93DF9360
:1008D000EC01162F0E9446056A837B838C839D83DF
:1008E000CE5BDF4F63E471E0888199810E94420909
:1008F0004AE050E0612F888199810E94F5096AE4FD
:1009000071E0888199810E94420962E370E080E091
:1009100090E0DF91CF911F910C9475051F93CF93B9
:10092000DF93EC01162F8E89882311F1CE010E94EE
:100930005804811102C085E61CC0CE010E945804F3
:100940008823C9F3CE010E944B04883689F048F40D
:10095000883569F0833689F7612FCE010E946504DE
:1009600007C0813729F0863741F786E702C01E8A23
:1009700083E6DF91CF911F9108950F931F93CF933B
:10098000DF931F92CDB7DEB78C01611108C0F8016B
:10099000468B0F90DF91CF911F910F91089581E0C9
:1009A000F801868B60E0C80149830E948E0449816A
:1009B0008336C1F7ECCF10929802109299021092F0
:1009C0009A0210929B0210929C0210929D02109229
:1009D0009E0210929F021092A0021092A102109209
:1009E000A2021092A3021092A4021092A5021092E9
:1009F000A6021092A70208951F920F920FB60F92AF
:100A000011242F933F938F939F93AF93BF93809124
:100A1000DB029091DC02A091DD02B091DE02309108
:100A2000DA0223E0230F2D3720F40196A11DB11D1A
:100A300005C026E8230F0296A11DB11D2093DA02FE
:100A40008093DB029093DC02A093DD02B093DE0280
:100A50008091DF029091E002A091E102B091E20268
:100A60000196A11DB11D8093DF029093E002A09337
:100A7000E102B093E202BF91AF919F918F913F91BC
:100A80002F910F900FBE0F901F9018952FB7F894CD
:100A90006091DB027091DC028091DD029091DE02B8
:100AA0002FBF08953FB7F8948091DF029091E00244
:100AB000A091E102B091E20226B5A89B05C02F3FAC
:100AC00019F00196A11DB11D3FBF6627782F892F10
:100AD0009A2F620F711D811D911D42E0660F771FD5
:100AE000881F991F4A95D1F708958F929F92AF92D0
:100AF000BF92CF92DF92EF92FF926B017C010E9436
:100B000052054B015C01C114D104E104F104F1F080
:100B10000E94F90A0E945205681979098A099B09FD
:100B2000683E73408105910570F321E0C21AD10837
:100B3000E108F10888EE880E83E0981EA11CB11C24
:100B4000C114D104E104F10429F7DDCFFF90EF9047
:100B5000DF90CF90BF90AF909F908F900895789442
:100B600084B5826084BD84B5816084BD85B58260B2
:100B700085BD85B5816085BDEEE6F0E08081816050
:100B80008083E1E8F0E01082808182608083808150
:100B900081608083E0E8F0E0808181608083E1EB28
:100BA000F0E0808184608083E0EBF0E08081816010
:100BB0008083EAE7F0E080818460808380818260C6
:100BC00080838081816080838081806880831092AF
:100BD000C10008951F93CF93DF93182FEB0161E0BD
:100BE0000E947206209711F460E004C0CF3FD10547
:100BF00039F461E0812FDF91CF911F910C94AB0606
:100C0000E12FF0E0E859FF4FE491E330F9F048F4C8
:100C1000E130B9F0E230A1F584B5806284BDC8BD91
:100C200034C0E730E9F0E83019F1E43049F580915B
:100C30008000806280938000D0938B00C0938A00F4
:100C400024C084B5806884BDC7BD1FC0809180006A
:100C5000806880938000D0938900C093880015C07D
:100C60008091B00080688093B000C093B3000DC045
:100C70008091B00080628093B000C093B40005C042
:100C8000C038D1050CF0B5CFAFCFDF91CF911F9118
:100C90000895833081F028F4813099F08230A1F0FA
:100CA00008958730A9F08830B9F08430D1F480916C
:100CB00080008F7D03C0809180008F7780938000BB
:100CC000089584B58F7702C084B58F7D84BD089563
:100CD0008091B0008F7703C08091B0008F7D8093AA
:100CE000B0000895CF93DF9390E0FC01E458FF4FEC
:100CF0002491FC01E057FF4F8491882349F190E053
:100D0000880F991FFC01E854FF4FA591B4918255BB
:100D10009F4FFC01C591D4919FB7611108C0F89411
:100D20008C91209582238C93888182230AC0623023
:100D300051F4F8948C91322F309583238C938881D1
:100D4000822B888304C0F8948C91822B8C939FBF54
:100D5000DF91CF9108950F931F93CF93DF931F924D
:100D6000CDB7DEB7282F30E0F901E859FF4F849165
:100D7000F901E458FF4F1491F901E057FF4F049136
:100D80000023C9F0882321F069830E944906698104
:100D9000E02FF0E0EE0FFF1FE255FF4FA591B49159
:100DA0009FB7F8948C91611103C01095812301C005
:100DB000812B8C939FBF0F90DF91CF911F910F914B
:100DC0000895CF93DF93282F30E0F901E859FF4FC2
:100DD0008491F901E458FF4FD491F901E057FF4F96
:100DE000C491CC2391F081110E944906EC2FF0E0D0
:100DF000EE0FFF1FEC55FF4FA591B4912C912D23C1
:100E000081E090E021F480E002C080E090E0DF919A
:100E1000CF910895FC01818D228D90E0805C9F4FE1
:100E2000821B91098F7399270895FC01918D828D02
:100E3000981731F0828DE80FF11D858D90E00895AF
:100E40008FEF9FEF0895FC01918D828D981761F0CF
:100E5000828DDF01A80FB11D5D968C91928D9F5FF1
:100E60009F73928F90E008958FEF9FEF089587EA28
:100E700098E0892B49F080E090E0892B29F00E94CE
:100E8000A70881110C9400000895FC01848DDF01F6
:100E9000A80FB11DA35ABF4F2C91848D90E00196ED
:100EA0008F739927848FA689B7892C93A089B189DC
:100EB0008C9180648C93938D848D981306C00288E6
:100EC000F389E02D80818F7D80830895CF93DF9318
:100ED000EC01888D8823C9F0EA89FB89808185FD32
:100EE00005C0A889B9898C9186FD0FC00FB607FC93
:100EF000F5CF808185FFF2CFA889B9898C9185FFD4
:100F0000EDCFCE010E944507E7CFDF91CF91089545
:100F1000CF92DF92FF920F931F93CF93DF931F9295
:100F2000CDB7DEB76C0181E0D60158968C93589707
:100F30005B969C915B975C968C915C97981307C02D
:100F40005096ED91FC915197808185FD2EC0F60160
:100F5000038D10E00F5F1F4F0F731127F02EF60166
:100F6000848DF81211C00FB607FCF9CFD601509648
:100F7000ED91FC915197808185FFF1CFC601698386
:100F80000E9445076981EBCF838DE80FF11DE35A7D
:100F9000FF4F6083D6015B960C935B975296ED9161
:100FA000FC915397808180620CC0D6015696ED91DA
:100FB000FC91579760835096ED91FC9151978081F9
:100FC0008064808381E090E00F90DF91CF911F914A
:100FD0000F91FF90DF90CF900895BF92CF92DF9254
:100FE000EF92FF92CF93DF93EC016A017B01B22E67
:100FF000E889F98982E08083411581EE580761050F
:101000007105A1F060E079E08DE390E0A701960121
:101010000E94190D215031094109510956954795F2
:1010200037952795211580E1380798F0E889F989E7
:10103000108260E874E88EE190E0A70196010E94BA
:10104000190D215031094109510956954795379598
:101050002795EC85FD853083EE85FF852083188EEE
:10106000EC89FD89B082EA89FB8980818061808377
:10107000EA89FB89808188608083EA89FB89808195
:1010800080688083EA89FB8980818F7D8083DF91FE
:10109000CF91FF90EF90DF90CF90BF9008951F9277
:1010A0000F920FB60F9211242F938F939F93EF936C
:1010B000FF93E091F302F091F4028081E091F90254
:1010C000F091FA0282FD12C090818091FC028F5F44
:1010D0008F732091FD02821751F0E091FC02F0E045
:1010E000ED51FD4F958F8093FC0201C08081FF91EF
:1010F000EF919F918F912F910F900FBE0F901F90A6
:1011000018951F920F920FB60F9211242F933F93B1
:101110004F935F936F937F938F939F93AF93BF93FF
:10112000EF93FF9383EE92E00E944507FF91EF91CA
:10113000BF91AF919F918F917F916F915F914F91EF
:101140003F912F910F900FBE0F901F90189583EE37
:1011500092E00E940A0721E0892B09F420E0822F07
:1011600008951092E6021092E50288EE93E0A0E066
:10117000B0E08093E7029093E802A093E902B09375
:10118000EA028FE991E09093E4028093E30285EC18
:1011900090E09093F0028093EF0284EC90E09093C3
:1011A000F2028093F10280EC90E09093F40280933D
:1011B000F30281EC90E09093F6028093F50282ECCA
:1011C00090E09093F8028093F70286EC90E0909381
:1011D000FA028093F9021092FC021092FD02109222
:1011E000FE021092FF02089508950E94AF050E942A
:1011F000F4080E948F00C7E3D7E00E94EC0020971C
:10120000E1F30E943707F9CFCF92DF92EF92FF927E
:101210000F931F93CF93DF937C016A01EB0100E0F2
:1012200010E00C151D0571F06991D701ED91FC914D
:101230000190F081E02DC7010995892B19F00F5F0E
:101240001F4FEFCFC801DF91CF911F910F91FF90FA
:10125000EF90DF90CF9008956115710581F0DB016B
:101260000D900020E9F7AD0141505109461B570B85
:10127000DC01ED91FC910280F381E02D099480E086
:1012800090E008950C942C09DC01ED91FC91019003
:10129000F081E02D099460E571E00C942C098F92A7
:1012A0009F92AF92BF92DF92EF92FF920F931F93A4
:1012B000CF93DF93CDB7DEB7A1970FB6F894DEBF1B
:1012C0000FBECDBF7C01F42FD52ECB0119A2223049
:1012D00008F42AE08E010F5D1F4F822E912CA12C65
:1012E000B12C6F2F7D2DA50194010E94190DF22FB5
:1012F000D32ECA01015011096A3014F4E0E301C091
:10130000E7E3E60FD801EC93232B242B252B49F799
:10131000B801C7010E942C09A1960FB6F894DEBF50
:101320000FBECDBFDF91CF911F910F91FF90EF9036
:10133000DF90BF90AF909F908F900895CF92DF92F3
:10134000EF92FF920F931F93CF93DF93EC016A010B
:101350007B012115310579F4E881F9810190F08153
:10136000E02D642FDF91CF911F910F91FF90EF90AF
:10137000DF90CF9009942A303105E9F477FF1AC045
:101380006DE20E9444098C0144275527BA014C198B
:101390005D096E097F092AE0CE010E944F09800F86
:1013A000911FDF91CF911F910F91FF90EF90DF90F0
:1013B000CF9008952AE0B701A601CE01DF91CF9129
:1013C0001F910F91FF90EF90DF90CF900C944F09F9
:1013D0002115310541F4DC01ED91FC910190F08182
:1013E000E02D642F09940C944F099A01462F50E088
:1013F00060E070E00C94E8094F925F926F927F92E8
:101400008F929F92AF92BF92CF92DF92EF92FF9214
:101410000F931F93CF93DF93EC016A017B01B22EF0
:101420009A01AB01C701B6010E94150D882319F07E
:101430006BEA71E027C026013701E89477F82FEFB7
:101440003FEF4FE75FE7C301B2010E94150D811125
:101450000DC02FEF3FEF4FE75FE7C301B2010E94DE
:101460005F0B18161CF46FEA71E00CC02FEF3FEF12
:101470004FE75FE4C701B6010E94AE0C1816ACF44A
:1014800063EB71E0CE01DF91CF911F910F91FF903F
:10149000EF90DF90CF90BF90AF909F908F907F9014
:1014A0006F905F904F900C942C092FEF3FEF4FE718
:1014B0005FECC701B6010E945F0B87FDE1CF20E022
:1014C00030E0A901C701B6010E945F0B87FF0AC087
:1014D0006DE2CE010E9444098C01F7FAF094F7F80E
:1014E000F09402C000E010E0A12C60E070E080E029
:1014F0009FE3AB1441F020E030E040E251E40E9471
:10150000630BA394F6CF9B01AC01C701B6010E9407
:10151000FB0A6B017C010E94D00B2B013C010E9455
:10152000FC0B9B01AC01C701B6010E94FA0A6B01DA
:101530007C012AE0B301A201CE010E944F09080FED
:10154000191FBB2039F067EB71E0CE010E942C0916
:10155000080F191F7B2C772041F120E030E040E29A
:1015600051E4C701B6010E94B20C6B017C010E94DC
:10157000CB0B4B01AA2497FCA094BA2C2AE030E0B4
:10158000B501A401CE010E949E09080F191FC501D3
:10159000B4010E94FE0B9B01AC01C701B6010E9481
:1015A000FA0A6B017C017A94D6CFC801DF91CF9102
:1015B0001F910F91FF90EF90DF90CF90BF90AF9071
:1015C0009F908F907F906F905F904F9008950F93B2
:1015D0001F93CF93DF93EC010E94FC098C01CE0195
:1015E0000E944B09800F911FDF91CF911F910F91A6
:1015F000089508955058BB27AA270ED075C166D10B
:1016000030F06BD120F031F49F3F11F41EF45BC138
:101610000EF4E095E7FB51C1E92F77D180F3BA17BB
:10162000620773078407950718F071F49EF58FC160
:101630000EF4E0950B2EBA2FA02D0B01B9019001ED
:101640000C01CA01A0011124FF27591B99F0593F31
:1016500050F4503E68F11A16F040A22F232F342F79
:101660004427585FF3CF469537952795A795F040C7
:101670005395C9F77EF41F16BA0B620B730B840BDC
:10168000BAF09150A1F0FF0FBB1F661F771F881F94
:10169000C2F70EC0BA0F621F731F841F48F48795EC
:1016A00077956795B795F7959E3F08F0B3CF9395DB
:1016B000880F08F09927EE0F979587950895D9D050
:1016C00008F481E008950CD00FC107D140F0FED09E
:1016D00030F021F45F3F19F0F0C0511139C1F3C06F
:1016E00014D198F39923C9F35523B1F3951B550BE6
:1016F000BB27AA2762177307840738F09F5F5F4FE5
:10170000220F331F441FAA1FA9F333D00E2E3AF025
:10171000E0E830D091505040E695001CCAF729D03F
:10172000FE2F27D0660F771F881FBB1F261737078E
:101730004807AB07B0E809F0BB0B802DBF01FF27BE
:1017400093585F4F2AF09E3F510568F0B6C000C124
:101750005F3FECF3983EDCF3869577956795B795F8
:10176000F7959F5FC9F7880F911D9695879597F913
:101770000895E1E0660F771F881FBB1F621773078C
:101780008407BA0720F0621B730B840BBA0BEE1FA1
:1017900088F7E095089504D06894B111D9C00895F0
:1017A000BCD088F09F5790F0B92F9927B751A0F07F
:1017B000D1F0660F771F881F991F1AF0BA95C9F7E5
:1017C00012C0B13081F0C3D0B1E00895C0C0672F1E
:1017D000782F8827B85F39F0B93FCCF38695779595
:1017E0006795B395D9F73EF490958095709561957E
:1017F0007F4F8F4F9F4F0895E89409C097FB3EF4A9
:1018000090958095709561957F4F8F4F9F4F99234D
:10181000A9F0F92F96E9BB279395F69587957795CB
:101820006795B795F111F8CFFAF4BB0F11F460FF8B
:101830001BC06F5F7F4F8F4F9F4F16C0882311F0E3
:1018400096E911C0772321F09EE8872F762F05C0F7
:10185000662371F096E8862F70E060E02AF09A9592
:10186000660F771F881FDAF7880F9695879597F987
:101870000895990F0008550FAA0BE0E8FEEF161621
:101880001706E807F907C0F012161306E407F50774
:1018900098F0621B730B840B950B39F40A2661F0E8
:1018A000232B242B252B21F408950A2609F4A1408B
:1018B000A6958FEF811D811D089597F99F6780E898
:1018C00070E060E008959FEF80EC089500240A9492
:1018D0001616170618060906089500240A9412160B
:1018E0001306140605060895092E0394000C11F43E
:1018F000882352F0BB0F40F4BF2B11F460FF04C0EB
:101900006F5F7F4F8F4F9F4F089557FD9058440F43
:10191000551F59F05F3F71F04795880F97FB991F4E
:1019200061F09F3F79F0879508951216130614060B
:10193000551FF2CF4695F1DF08C016161706180698
:10194000991FF1CF86957105610508940895E89473
:10195000BB2766277727CB0197F908958ADF08F41C
:101960008FEF08950BD0C0CFB1DF28F0B6DF18F0AD
:10197000952309F0A2CFA7CF1124EACFC6DFA0F3A9
:10198000959FD1F3950F50E0551F629FF001729F14
:10199000BB27F00DB11D639FAA27F00DB11DAA1F33
:1019A000649F6627B00DA11D661F829F2227B00D80
:1019B000A11D621F739FB00DA11D621F839FA00D0B
:1019C000611D221F749F3327A00D611D231F849F5B
:1019D000600D211D822F762F6A2F11249F575040B2
:1019E0008AF0E1F088234AF0EE0FFF1FBB1F661F4D
:1019F000771F881F91505040A9F79E3F510570F006
:101A00005CCFA6CF5F3FECF3983EDCF386957795ED
:101A10006795B795F795E7959F5FC1F7FE2B880F00
:101A2000911D9695879597F9089523DF880B990B5B
:101A30000895A1E21A2EAA1BBB1BFD010DC0AA1F0F
:101A4000BB1FEE1FFF1FA217B307E407F50720F027
:101A5000A21BB30BE40BF50B661F771F881F991FA2
:101A60001A9469F760957095809590959B01AC01EB
:101A7000BD01CF010895EE0FFF1F0590F491E02DF9
:061A80000994F894FFCF69
:101A8600564D4450565F317C315F564D4450560D8D
:101A96000A00736F6C6C5F70776D5F6F75743A20B8
:101AA60000000000001602E9018F019701AA01B9A2
:101AB60001564D4450455F003A323A005F564D4458
:101AC600504500564D4450435F005F564D445043C9
:101AD6000D0A004572726F723A20417474656D701A
:101AE6007420746F20736574206120726561642DA3
:101AF6006F6E6C79207661726961626C65206F72B7
:101B060020646174612074797065206E6F7420732F
:101B16007570706F727465640D0A000000000088AD
:101B26000704090A072307150766076E616E006931
:0A1B36006E66006F7666002E000058
:00000001FF
